01910202106441419102021CEADM1001234567        99999999999999GETNET S.A.         000000953GSSANT. V.8.0 400 BYTES                                                                                                                                                                                                                                                                                                
11234567        SMPOS625443556181020211811202103399999999999999999000000002000000000000000012897000000012725000000000000000000000172000000000000000000012725000000000000PF01011234567        00000000000000000000000000000000000000000000000000000000000000000000000000000000000000000000986 +                                                                                                                  
21234567        62544355600000003958718102021212038529999******9999   0000000083980000000000000000000000000101000000008398181120210000038255POSC1234567        10517729986N+                                                                                                                                                                                                                                    
21234567        62544355600000003958118102021205021549999******9999   0000000044990000000000000000000000000101000000004499181120210000050587POSC1234567        10517729986N+                                                                                                                                                                                                                                    
11234567        SVPOS624777071181020211811202103399999999999999999000000003000000000000000009797000000009667000000000000000000000130000000000000000000009667000000000000PF01011234567        00000000000000000000000000000000000000000000000000000000000000000000000000000000000000000000986 +                                                                                                                  
21234567        62477707100000002270118102021163206409999******9999   0000000032990000000000000000000000000101000000003299181120210000621999POSC1234567        10908973986N+                                                                                                                                                                                                                                    
21234567        62477707100000002272318102021191554409999******9999   0000000027990000000000000000000000000101000000002799181120210000660559POSC1234567        10908973986N+                                                                                                                                                                                                                                    
21234567        62477707100000002270318102021163842489999******9999   0000000036990000000000000000000000000101000000003699181120210000094855POSC1234567        10908973986N+                                                                                                                                                                                                                                    
11234567        SMTEF624660611181020211811202103399999999999999999000000001000000000000000003499000000003452000000000000000000000047000000000000000000003452000000000000PF01011234567        00000000000000000000000000000000000000000000000000000000000000000000000000000000000000000000986 +                                                                                                                  
21234567        62466061100000100204418102021192824559999******9999   0000000034990000000000000000000000000101000000003499181120210000487250TEFC1234567        TF039586986N+                                                                                                                                                                                                                                    
11234567        SMPOS624660509181020211811202103399999999999999999000000006000000000000000039492000000038968000000000000000000000524000000000000000000038968000000000000PF01011234567        00000000000000000000000000000000000000000000000000000000000000000000000000000000000000000000986 +                                                                                                                  
21234567        62466050900000002271918102021182214519999******9999   0000000010000000000000000000000000000101000000001000181120210000222762POSC1234567        10908973986N+                                                                                                                                                                                                                                    
21234567        62466050900000002271718102021182026549999******9999   0000000115970000000000000000000000000101000000011597181120210000037916POSC1234567        10908973986N+                                                                                                                                                                                                                                    
21234567        62466050900000002271318102021180610519999******9999   0000000109990000000000000000000000000101000000010999181120210000079400POSC1234567        10908973986N+                                                                                                                                                                                                                                    
21234567        62466050900000002272118102021191000559999******9999   0000000084980000000000000000000000000101000000008498181120210000370405POSC1234567        10908973986N+                                                                                                                                                                                                                                    
21234567        62466050900000002271518102021181342529999******9999   0000000020990000000000000000000000000101000000002099181120210000010722POSC1234567        10908973986N+                                                                                                                                                                                                                                    
21234567        62466050900000002269518102021155844539999******9999   0000000052990000000000000000000000000101000000005299181120210000R89578POSC1234567        10908973986N+                                                                                                                                                                                                                                    
11234567        SMPOS624660459181020211811202103399999999999999999000000003000000000000000020395000000020124000000000000000000000271000000000000000000020124000000000000PF01011234567        00000000000000000000000000000000000000000000000000000000000000000000000000000000000000000000986 +                                                                                                                  
21234567        62466045900000003957118102021194742529999******9999   0000000094980000000000000000000000000101000000009498181120210000481164POSC1234567        10517729986N+                                                                                                                                                                                                                                    
21234567        62466045900000003957918102021204426559999******9999   0000000079980000000000000000000000000101000000007998181120210000763525POSC1234567        10517729986N+                                                                                                                                                                                                                                    
21234567        62466045900000003956918102021191909239999******9999   0000000028990000000000000000000000000101000000002899181120210000R09502POSC1234567        10517729986N+                                                                                                                                                                                                                                    
11234567        SMPOS624660425181020211811202103399999999999999999000000001000000000000000002799000000002762000000000000000000000037000000000000000000002762000000000000PF01011234567        00000000000000000000000000000000000000000000000000000000000000000000000000000000000000000000986 +                                                                                                                  
21234567        62466042500000003957518102021201446529999******9999   000000002799000000000000000000000000010100000000279918112021000001836TPOSC1234567        10517729986E+                                                                                                                                                                                                                                    
11234567        SMTEF623987550181020211811202103399999999999999999000000002000000000000000034539000000034079000000000000000000000460000000000000000000034079000000000000PF01011234567        00000000000000000000000000000000000000000000000000000000000000000000000000000000000000000000986 +                                                                                                                  
21234567        62398755000000100202818102021120706519999******9999   0000000047010000000000000000000000000101000000004701181120210000104648TEFC1234567        TF039586986N+                                                                                                                                                                                                                                    
21234567        62398755000000100203218102021124926519999******9999   0000000298380000000000000000000000000101000000029838181120210000017718TEFC1234567        TF039586986N+                                                                                                                                                                                                                                    
11234567        SMPOS623987458181020211811202103399999999999999999000000004000000000000000019894000000019629000000000000000000000265000000000000000000019629000000000000PF01011234567        00000000000000000000000000000000000000000000000000000000000000000000000000000000000000000000986 +                                                                                                                  
21234567        62398745800000002268718102021152426519999******9999   0000000032990000000000000000000000000101000000003299181120210000664558POSC1234567        10908973986N+                                                                                                                                                                                                                                    
21234567        62398745800000002269118102021153017519999******9999   0000000062980000000000000000000000000101000000006298181120210000266082POSC1234567        10908973986N+                                                                                                                                                                                                                                    
21234567        62398745800000002267118102021125207539999******9999   0000000074980000000000000000000000000101000000007498181120210000029405POSC1234567        10908973986N+                                                                                                                                                                                                                                    
21234567        62398745800000002267318102021134326539999******9999   0000000027990000000000000000000000000101000000002799181120210000040968POSC1234567        10908973986N+                                                                                                                                                                                                                                    
11234567        SMTEF623987382181020211811202103399999999999999999000000001000000000000000016797000000016574000000000000000000000223000000000000000000016574000000000000PF01011234567        00000000000000000000000000000000000000000000000000000000000000000000000000000000000000000000986 +                                                                                                                  
21234567        62398738200000100203018102021123311519999******9999   0000000167970000000000000000000000000101000000016797181120210000981850TEFC1234567        TF039586986E+                                                                                                                                                                                                                                    
11234567        SMPOS623987345181020211811202103399999999999999999000000002000000000000000043990000000043405000000000000000000000585000000000000000000043405000000000000PF01011234567        00000000000000000000000000000000000000000000000000000000000000000000000000000000000000000000986 +                                                                                                                  
21234567        62398734500000002267918102021145939519999******9999   0000000036990000000000000000000000000101000000003699181120210000227830POSC1234567        10908973986E+                                                                                                                                                                                                                                    
21234567        62398734500000002267518102021144630529999******9999   0000000402910000000000000000000000000101000000040291181120210000871202POSC1234567        10908973986E+                                                                                                                                                                                                                                    
11234567        ACPOS623761631181020211811202103399999999999999999000000001000000000000000002899000000002848000000000000000000000051000000000000000000002848000000000000PF01011234567        00000000000000000000000000000000000000000000000000000000000000000000000000000000000000000000986 +                                                                                                                  
21234567        62376163100000002267718102021145259379999*****9999    0000000028990000000000000000000000000101000000002899181120210000808410POSC1234567        10908973986E+                                                                                                                                                                                                                                    
11234567        SMPOS623213466181020211811202103399999999999999999000000001000000000000000001999000000001972000000000000000000000027000000000000000000001972000000000000PF01011234567        00000000000000000000000000000000000000000000000000000000000000000000000000000000000000000000986 +                                                                                                                  
21234567        62321346600000002266318102021114515529999******9999   0000000019990000000000000000000000000101000000001999181120210000212666POSC1234567        10908973986N+                                                                                                                                                                                                                                    
11234567        SMTEF623213425181020211811202103399999999999999999000000002000000000000000010798000000010655000000000000000000000143000000000000000000010655000000000000PF01011234567        00000000000000000000000000000000000000000000000000000000000000000000000000000000000000000000986 +                                                                                                                  
21234567        62321342500000100202618102021114307519999******9999   000000002799000000000000000000000000010100000000279918112021000092531ZTEFC1234567        TF039586986E+                                                                                                                                                                                                                                    
21234567        62321342500000100202218102021102746529999******9999   0000000079990000000000000000000000000101000000007999181120210000666729TEFC1234567        TF039586986E+                                                                                                                                                                                                                                    
11234567        ACTEF623048920181020211811202103399999999999999999000000001000000000000000005299000000005205000000000000000000000094000000000000000000005205000000000000PF01011234567        00000000000000000000000000000000000000000000000000000000000000000000000000000000000000000000986 +                                                                                                                  
21234567        62304892000000100202418102021114157379999*****9999    0000000052990000000000000000000000000101000000005299181120210000885861TEFC1234567        TF039586986E+                                                                                                                                                                                                                                    
11234567        SRPOS625495669181020211910202103399999999999999999000000001000000000000000004198000000004174000000000000000000000024000000000000000000004174000000000000PG01011234567        00000000000000000000000000000000000000000000000000000000000000000000000000000000000000000000986 +                                                                                                                  
21234567        62549566900000003958518102021211305549999******9999   0000000041980000000000000000000000000101000000004198191020210000lU30xsPOSC1234567        10517729986N+                                                                                                                                                                                                                                    
11234567        EDPOS625442881181020211910202103399999999999999999000000001000000000000000005598000000005566000000000000000000000032000000000000000000005566000000000000PG01011234567        00000000000000000000000000000000000000000000000000000000000000000000000000000000000000000000986 +                                                                                                                  
21234567        62544288100000003958318102021205941509999******9999   0000000055980000000000000000000000000101000000005598191020210000272797POSC1234567        10517729986N+                                                                                                                                                                                                                                    
11234567        SEPOS625202850181020211910202103399999999999999999000000002000000000000000012798000000012725000000000000000000000073000000000000000000012725000000000000PG01011234567        00000000000000000000000000000000000000000000000000000000000000000000000000000000000000000000986 +                                                                                                                  
21234567        62520285000000002269718102021160050419999******9999   0000000027990000000000000000000000000101000000002799191020210000005779POSC1234567        10908973986N+                                                                                                                                                                                                                                    
21234567        62520285000000002271118102021180101409999******9999   0000000099990000000000000000000000000101000000009999191020210000164880POSC1234567        10908973986N+                                                                                                                                                                                                                                    
11234567        SRPOS624965805181020211910202103399999999999999999000000002000000000000000012797000000012724000000000000000000000073000000000000000000012724000000000000PG01011234567        00000000000000000000000000000000000000000000000000000000000000000000000000000000000000000000986 +                                                                                                                  
21234567        62496580500000002270918102021175054559999******9999   0000000037990000000000000000000000000101000000003799191020210000447357POSC1234567        10908973986N+                                                                                                                                                                                                                                    
21234567        62496580500000002270518102021165942589999******9999   0000000089980000000000000000000000000101000000008998191020210000203231POSC1234567        10908973986N+                                                                                                                                                                                                                                    
11234567        SRPOS624965777181020211910202103399999999999999999000000002000000000000000004499000000004473000000000000000000000026000000000000000000004473000000000000PG01011234567        00000000000000000000000000000000000000000000000000000000000000000000000000000000000000000000986 +                                                                                                                  
21234567        62496577700000003957718102021203158589999******9999   0000000032990000000000000000000000000101000000003299191020210000374091POSC1234567        10517729986N+                                                                                                                                                                                                                                    
21234567        62496577700000003957318102021195938589999******9999   0000000012000000000000000000000000000101000000001200191020210000357582POSC1234567        10517729986N+                                                                                                                                                                                                                                    
11234567        SRPOS624965752181020211910202103399999999999999999000000001000000000000000031192000000031014000000000000000000000178000000000000000000031014000000000000PG01011234567        00000000000000000000000000000000000000000000000000000000000000000000000000000000000000000000986 +                                                                                                                  
21234567        62496575200000002272518102021191830679999******99990530000000311920000000000000000000000000101000000031192191020210000B06918POSC1234567        10908973986E+                                                                                                                                                                                                                                    
11234567        EDPOS624975276181020211910202103399999999999999999000000001000000000000000002999000000002982000000000000000000000017000000000000000000002982000000000000PG01011234567        00000000000000000000000000000000000000000000000000000000000000000000000000000000000000000000986 +                                                                                                                  
21234567        62497527600000002269918102021162856509999******9999   0000000029990000000000000000000000000101000000002999191020210000979754POSC1234567        10908973986N+                                                                                                                                                                                                                                    
11234567        SEPOS624427559181020211910202103399999999999999999000000002000000000000000019995000000019881000000000000000000000114000000000000000000019881000000000000PG01011234567        00000000000000000000000000000000000000000000000000000000000000000000000000000000000000000000986 +                                                                                                                  
21234567        62442755900000002266918102021120333419999******9999   0000000179960000000000000000000000000101000000017996191020210000034169POSC1234567        10908973986N+                                                                                                                                                                                                                                    
21234567        62442755900000002268118102021150821479999******9999   0000000019990000000000000000000000000101000000001999191020210000268838POSC1234567        10908973986N+                                                                                                                                                                                                                                    
11234567        SRTEF624262180181020211910202103399999999999999999000000001000000000000000002799000000002783000000000000000000000016000000000000000000002783000000000000PG01011234567        00000000000000000000000000000000000000000000000000000000000000000000000000000000000000000000986 +                                                                                                                  
21234567        62426218000000100203418102021130747549999******9999   0000000027990000000000000000000000000101000000002799191020210000074860TEFC1234567        TF039586986N+                                                                                                                                                                                                                                    
11234567        SRPOS624262124181020211910202103399999999999999999000000004000000000000000015596000000015507000000000000000000000089000000000000000000015507000000000000PG01011234567        00000000000000000000000000000000000000000000000000000000000000000000000000000000000000000000986 +                                                                                                                  
21234567        62426212400000002268918102021152722549999******9999   0000000034990000000000000000000000000101000000003499191020210000754875POSC1234567        10908973986N+                                                                                                                                                                                                                                    
21234567        62426212400000002268318102021151324559999******9999   0000000039990000000000000000000000000101000000003999191020210000730848POSC1234567        10908973986N+                                                                                                                                                                                                                                    
21234567        62426212400000002269318102021153400539999******9999   0000000052990000000000000000000000000101000000005299191020210000BKhH3MPOSC1234567        10908973986N+                                                                                                                                                                                                                                    
21234567        62426212400000002268518102021151522549999******9999   0000000027990000000000000000000000000101000000002799191020210000153277POSC1234567        10908973986N+                                                                                                                                                                                                                                    
11234567        SRPOS623479958181020211910202103399999999999999999000000001000000000000000003799000000003777000000000000000000000022000000000000000000003777000000000000PG01011234567        00000000000000000000000000000000000000000000000000000000000000000000000000000000000000000000986 +                                                                                                                  
21234567        62347995800000002266718102021114821589999******9999   0000000037990000000000000000000000000101000000003799191020210000942385POSC1234567        10908973986N+                                                                                                                                                                                                                                    
11234567        SVPOS538876468180920211910202103399999999999999999000000001000000000000000009897000000009765000000000000000000000132000000000000000000009765000000000000PG01011234567        00000000000000000000000000000000000000000000000000000000000000000000000000000000000000000000986 +                                                                                                                  
21234567        53887646800000003834518092021214537429999******9999   0000000098970000000000000000000000000101000000009897191020210000069466POSC1234567        10517729986N+                                                                                                                                                                                                                                    
11234567        SMPOS538802259180920211910202103399999999999999999000000003000000000000000026796000000026440000000000000000000000356000000000000000000026440000000000000PG01011234567        00000000000000000000000000000000000000000000000000000000000000000000000000000000000000000000986 +                                                                                                                  
21234567        53880225900000002008118092021212750559999******9999   0000000100000000000000000000000000000101000000010000191020210000615657POSC1234567        10908973986N+                                                                                                                                                                                                                                    
21234567        53880225900000002007118092021205518529999******9999   0000000097980000000000000000000000000101000000009798191020210000080512POSC1234567        10908973986N+                                                                                                                                                                                                                                    
21234567        53880225900000002006518092021205016549999******9999   0000000069980000000000000000000000000101000000006998191020210000088832POSC1234567        10908973986N+                                                                                                                                                                                                                                    
11234567        SVPOS538451679180920211910202103399999999999999999000000002000000000000000009331000000009207000000000000000000000124000000000000000000009207000000000000PG01011234567        00000000000000000000000000000000000000000000000000000000000000000000000000000000000000000000986 +                                                                                                                  
21234567        53845167900000002003118092021184641499999******9999   0000000023330000000000000000000000000101000000002333191020210000097667POSC1234567        10908973986N+                                                                                                                                                                                                                                    
21234567        53845167900000002005718092021203908459999******9999   0000000069980000000000000000000000000101000000006998191020210000693285POSC1234567        10908973986N+                                                                                                                                                                                                                                    
11234567        SVPOS538451530180920211910202103399999999999999999000000012000000000000000080084000000079019000000000000000000001065000000000000000000079019000000000000PG01011234567        00000000000000000000000000000000000000000000000000000000000000000000000000000000000000000000986 +                                                                                                                  
21234567        53845153000000003827118092021171304429999******9999   0000000026990000000000000000000000000101000000002699191020210000131353POSC1234567        10517729986N+                                                                                                                                                                                                                                    
21234567        53845153000000003825318092021162750429999******9999   0000000089990000000000000000000000000101000000008999191020210000275962POSC1234567        10517729986N+                                                                                                                                                                                                                                    
21234567        53845153000000003827318092021171724459999******9999   0000000034990000000000000000000000000101000000003499191020210000674264POSC1234567        10517729986N+                                                                                                                                                                                                                                    
21234567        53845153000000003829318092021180109489999******9999   0000000072990000000000000000000000000101000000007299191020210000611763POSC1234567        10517729986N+                                                                                                                                                                                                                                    
21234567        53845153000000003829918092021180842499999******9999   0000000049990000000000000000000000000101000000004999191020210000129610POSC1234567        10517729986N+                                                                                                                                                                                                                                    
21234567        53845153000000003834118092021202410499999******9999   0000000079980000000000000000000000000101000000007998191020210000683871POSC1234567        10517729986N+                                                                                                                                                                                                                                    
21234567        53845153000000003826518092021170321419999******9999   0000000089980000000000000000000000000101000000008998191020210000034273POSC1234567        10517729986N+                                                                                                                                                                                                                                    
21234567        53845153000000003830518092021181446419999******9999   0000000089990000000000000000000000000101000000008999191020210000150167POSC1234567        10517729986N+                                                                                                                                                                                                                                    
21234567        53845153000000003826118092021165941489999******9999   0000000052990000000000000000000000000101000000005299191020210000018378POSC1234567        10517729986N+                                                                                                                                                                                                                                    
21234567        53845153000000003831918092021184434499999******9999   0000000069990000000000000000000000000101000000006999191020210000081968POSC1234567        10517729986N+                                                                                                                                                                                                                                    
21234567        53845153000000003832318092021184723459999******9999   0000000057990000000000000000000000000101000000005799191020210000674103POSC1234567        10517729986N+                                                                                                                                                                                                                                    
21234567        53845153000000003826918092021170902419999******9999   0000000084970000000000000000000000000101000000008497191020210000025262POSC1234567        10517729986N+                                                                                                                                                                                                                                    
11234567        SVPOS538451511180920211910202103399999999999999999000000001000000000000000001799000000001775000000000000000000000024000000000000000000001775000000000000PG01011234567        00000000000000000000000000000000000000000000000000000000000000000000000000000000000000000000986 +                                                                                                                  
21234567        53845151100000003824318092021160311499999******9999   0000000017990000000000000000000000000101000000001799191020210000360068POSC1234567        10517729986E+                                                                                                                                                                                                                                    
11234567        SVPOS538451745180920211910202103399999999999999999000000001000000000000000010999000000010831000000000000000000000168000000000000000000010831000000000000PG01031234567        00000000000000000000000000000000000000000000000000000000000000000000000000000000000000000000986 +                                                                                                                  
21234567        53845174500000003829718092021180719409999******9999   0000000329970000000000000000000000000301000000010999191020210000674351POSC1234567        10517729986N+                                                                                                                                                                                                                                    
11234567        SVPOS538451736180920211910202103399999999999999999000000002000000000000000012749000000012555000000000000000000000194000000000000000000012555000000000000PG01021234567        00000000000000000000000000000000000000000000000000000000000000000000000000000000000000000000986 +                                                                                                                  
21234567        53845173600000003826718092021170635459999******9999   0000000154970000000000000000000000000201000000007749191020210000665961POSC1234567        10517729986N+                                                                                                                                                                                                                                    
21234567        53845173600000003831718092021184153409999******9999   0000000099990000000000000000000000000201000000005000191020210000069750POSC1234567        10517729986N+                                                                                                                                                                                                                                    
11234567        SMPOS538050583180920211910202103399999999999999999000000006000000000000000058160000000057386000000000000000000000774000000000000000000057386000000000000PG01011234567        00000000000000000000000000000000000000000000000000000000000000000000000000000000000000000000986 +                                                                                                                  
21234567        53805058300000002002518092021172957559999******9999   0000000376920000000000000000000000000101000000037692191020210000045355POSC1234567        10908973986N+                                                                                                                                                                                                                                    
21234567        53805058300000002005318092021195535549999******9999   0000000032990000000000000000000000000101000000003299191020210000014660POSC1234567        10908973986N+                                                                                                                                                                                                                                    
21234567        53805058300000002004518092021193011239999******9999   0000000063720000000000000000000000000101000000006372191020210000632716POSC1234567        10908973986N+                                                                                                                                                                                                                                    
21234567        53805058300000002006118092021204534519999******9999   0000000034990000000000000000000000000101000000003499191020210000655590POSC1234567        10908973986N+                                                                                                                                                                                                                                    
21234567        53805058300000002003718092021185233529999******9999   0000000045990000000000000000000000000101000000004599191020210000524261POSC1234567        10908973986N+                                                                                                                                                                                                                                    
21234567        53805058300000002006318092021204640539999******9999   0000000026990000000000000000000000000101000000002699191020210000013350POSC1234567        10908973986N+                                                                                                                                                                                                                                    
11234567        SMPOS538050294180920211910202103399999999999999999000000016000000000000000087383000000086221000000000000000000001162000000000000000000086221000000000000PG01011234567        00000000000000000000000000000000000000000000000000000000000000000000000000000000000000000000986 +                                                                                                                  
21234567        53805029400000003830918092021181849549999******9999   0000000020990000000000000000000000000101000000002099191020210000190765POSC1234567        10517729986N+                                                                                                                                                                                                                                    
21234567        53805029400000003828918092021175744529999******9999   0000000046990000000000000000000000000101000000004699191020210000R05057POSC1234567        10517729986N+                                                                                                                                                                                                                                    
21234567        53805029400000003828118092021174700549999******9999   0000000052990000000000000000000000000101000000005299191020210000035293POSC1234567        10517729986N+                                                                                                                                                                                                                                    
21234567        53805029400000003828518092021175333559999******9999   0000000029990000000000000000000000000101000000002999191020210000075372POSC1234567        10517729986N+                                                                                                                                                                                                                                    
21234567        53805029400000003825118092021162030529999******9999   0000000089990000000000000000000000000101000000008999191020210000266083POSC1234567        10517729986N+                                                                                                                                                                                                                                    
21234567        53805029400000003824918092021161342539999******9999   0000000034990000000000000000000000000101000000003499191020210000024934POSC1234567        10517729986N+                                                                                                                                                                                                                                    
21234567        53805029400000003833718092021201653519999******9999   0000000053980000000000000000000000000101000000005398191020210000830838POSC1234567        10517729986N+                                                                                                                                                                                                                                    
21234567        53805029400000003831118092021183452519999******9999   0000000067990000000000000000000000000101000000006799191020210000268840POSC1234567        10517729986N+                                                                                                                                                                                                                                    
21234567        53805029400000003827518092021171751549999******9999   0000000034990000000000000000000000000101000000003499191020210000325114POSC1234567        10517729986N+                                                                                                                                                                                                                                    
21234567        53805029400000003828318092021174917549999******9999   0000000064990000000000000000000000000101000000006499191020210000493052POSC1234567        10517729986N+                                                                                                                                                                                                                                    
21234567        53805029400000003832918092021195541519999******9999   0000000140000000000000000000000000000101000000014000191020210000870428POSC1234567        10517729986N+                                                                                                                                                                                                                                    
21234567        53805029400000003827918092021173541559999******9999   0000000044990000000000000000000000000101000000004499191020210000382702POSC1234567        10517729986N+                                                                                                                                                                                                                                    
21234567        53805029400000003825918092021165815549999******9999   0000000039990000000000000000000000000101000000003999191020210000583570POSC1234567        10517729986N+                                                                                                                                                                                                                                    
21234567        53805029400000003823518092021155216239999******9999   0000000034990000000000000000000000000101000000003499191020210000R01068POSC1234567        10517729986N+                                                                                                                                                                                                                                    
21234567        53805029400000003833918092021202251529999******9999   0000000039990000000000000000000000000101000000003999191020210000443667POSC1234567        10517729986N+                                                                                                                                                                                                                                    
21234567        53805029400000003830718092021181748549999******9999   0000000075980000000000000000000000000101000000007598191020210000062754POSC1234567        10517729986N+                                                                                                                                                                                                                                    
11234567        SMPOS538050756180920211910202103399999999999999999000000001000000000000000012199000000012013000000000000000000000186000000000000000000012013000000000000PG01031234567        00000000000000000000000000000000000000000000000000000000000000000000000000000000000000000000986 +                                                                                                                  
21234567        53805075600000003833118092021195821559999******9999   0000000365930000000000000000000000000301000000012199191020210000071249POSC1234567        10517729986N+                                                                                                                                                                                                                                    
11234567        SMPOS538050632180920211910202103399999999999999999000000004000000000000000026394000000025992000000000000000000000402000000000000000000025992000000000000PG01021234567        00000000000000000000000000000000000000000000000000000000000000000000000000000000000000000000986 +                                                                                                                  
21234567        53805063200000003824518092021160603559999******9999   0000000130960000000000000000000000000201000000006548191020210000010928POSC1234567        10517729986N+                                                                                                                                                                                                                                    
21234567        53805063200000003832718092021191951539999******9999   0000000132980000000000000000000000000201000000006649191020210000T75077POSC1234567        10517729986N+                                                                                                                                                                                                                                    
21234567        53805063200000003829518092021180335559999******9999   0000000099980000000000000000000000000201000000004999191020210000028784POSC1234567        10517729986N+                                                                                                                                                                                                                                    
21234567        53805063200000003825518092021163423559999******9999   0000000163960000000000000000000000000201000000008198191020210000643433POSC1234567        10517729986N+                                                                                                                                                                                                                                    
11234567        ECPOS537862264180920211910202103399999999999999999000000001000000000000000006499000000006413000000000000000000000086000000000000000000006413000000000000PG01011234567        00000000000000000000000000000000000000000000000000000000000000000000000000000000000000000000986 +                                                                                                                  
21234567        53786226400000002004318092021192121659999******9999   0000000064990000000000000000000000000101000000006499191020210000613882POSC1234567        10908973986N+                                                                                                                                                                                                                                    
11234567        ECPOS537862240180920211910202103399999999999999999000000001000000000000000002799000000002762000000000000000000000037000000000000000000002762000000000000PG01011234567        00000000000000000000000000000000000000000000000000000000000000000000000000000000000000000000986 +                                                                                                                  
21234567        53786224000000002005118092021194553509999******9999   0000000027990000000000000000000000000101000000002799191020210000660436POSC1234567        10908973986N+                                                                                                                                                                                                                                    
11234567        ECPOS537862205180920211910202103399999999999999999000000001000000000000000005999000000005919000000000000000000000080000000000000000000005919000000000000PG01011234567        00000000000000000000000000000000000000000000000000000000000000000000000000000000000000000000986 +                                                                                                                  
21234567        53786220500000003834318092021204353659999******9999   0000000059990000000000000000000000000101000000005999191020210000641735POSC1234567        10517729986N+                                                                                                                                                                                                                                    
11234567        ECPOS537862182180920211910202103399999999999999999000000001000000000000000011597000000011443000000000000000000000154000000000000000000011443000000000000PG01011234567        00000000000000000000000000000000000000000000000000000000000000000000000000000000000000000000986 +                                                                                                                  
21234567        53786218200000003833518092021200524659999******9999   0000000115970000000000000000000000000101000000011597191020210000654126POSC1234567        10517729986N+                                                                                                                                                                                                                                    
11234567        SVPOS537134327180920211910202103399999999999999999000000004000000000000000016695000000016472000000000000000000000223000000000000000000016472000000000000PG01011234567        00000000000000000000000000000000000000000000000000000000000000000000000000000000000000000000986 +                                                                                                                  
21234567        53713432700000001999518092021142712419999******9999   0000000029990000000000000000000000000101000000002999191020210000109682POSC1234567        10908973986N+                                                                                                                                                                                                                                    
21234567        53713432700000001997918092021134914459999******9999   0000000034990000000000000000000000000101000000003499191020210000046352POSC1234567        10908973986N+                                                                                                                                                                                                                                    
21234567        53713432700000002000918092021150917479999******9999   0000000047990000000000000000000000000101000000004799191020210000051034POSC1234567        10908973986N+                                                                                                                                                                                                                                    
21234567        53713432700000001998918092021141618489999******9999   0000000053980000000000000000000000000101000000005398191020210000165245POSC1234567        10908973986N+                                                                                                                                                                                                                                    
11234567        SVPOS537134113180920211910202103399999999999999999000000004000000000000000029193000000028804000000000000000000000389000000000000000000028804000000000000PG01011234567        00000000000000000000000000000000000000000000000000000000000000000000000000000000000000000000986 +                                                                                                                  
21234567        53713411300000003820518092021130153479999******9999   0000000074980000000000000000000000000101000000007498191020210000082645POSC1234567        10517729986N+                                                                                                                                                                                                                                    
21234567        53713411300000003819518092021121425499999******9999   0000000150970000000000000000000000000101000000015097191020210000049310POSC1234567        10517729986N+                                                                                                                                                                                                                                    
21234567        53713411300000003821518092021134025409999******9999   0000000036990000000000000000000000000101000000003699191020210000603875POSC1234567        10517729986N+                                                                                                                                                                                                                                    
21234567        53713411300000003823318092021154718459999******9999   0000000028990000000000000000000000000101000000002899191020210000673868POSC1234567        10517729986N+                                                                                                                                                                                                                                    
11234567        SMPOS537198447180920211910202103399999999999999999000000005000000000000000041594000000041041000000000000000000000553000000000000000000041041000000000000PG01011234567        00000000000000000000000000000000000000000000000000000000000000000000000000000000000000000000986 +                                                                                                                  
21234567        53719844700000002000318092021145321559999******9999   0000000052990000000000000000000000000101000000005299191020210000713260POSC1234567        10908973986N+                                                                                                                                                                                                                                    
21234567        53719844700000001999318092021142248529999******9999   0000000169990000000000000000000000000101000000016999191020210000013566POSC1234567        10908973986N+                                                                                                                                                                                                                                    
21234567        53719844700000002002318092021152756549999******9999   0000000089980000000000000000000000000101000000008998191020210000280557POSC1234567        10908973986N+                                                                                                                                                                                                                                    
21234567        53719844700000002000118092021145219549999******9999   0000000067990000000000000000000000000101000000006799191020210000024323POSC1234567        10908973986N+                                                                                                                                                                                                                                    
21234567        53719844700000001998518092021140838559999******9999   0000000034990000000000000000000000000101000000003499191020210000076647POSC1234567        10908973986N+                                                                                                                                                                                                                                    
11234567        SMPOS537198368180920211910202103399999999999999999000000005000000000000000047501000000046868000000000000000000000633000000000000000000046868000000000000PG01011234567        00000000000000000000000000000000000000000000000000000000000000000000000000000000000000000000986 +                                                                                                                  
21234567        53719836800000003821118092021133313519999******9999   0000000090100000000000000000000000000101000000009010191020210000154326POSC1234567        10517729986N+                                                                                                                                                                                                                                    
21234567        53719836800000003818918092021115909559999******9999   0000000123970000000000000000000000000101000000012397191020210000043020POSC1234567        10517729986N+                                                                                                                                                                                                                                    
21234567        53719836800000003821318092021133435549999******9999   0000000104980000000000000000000000000101000000010498191020210000088783POSC1234567        10517729986N+                                                                                                                                                                                                                                    
21234567        53719836800000003819918092021122146549999******9999   0000000032990000000000000000000000000101000000003299191020210000094572POSC1234567        10517729986N+                                                                                                                                                                                                                                    
21234567        53719836800000003820918092021132802539999******9999   0000000122970000000000000000000000000101000000012297191020210000039332POSC1234567        10517729986N+                                                                                                                                                                                                                                    
11234567        SMPOS537198631180920211910202103399999999999999999000000001000000000000000009333000000009191000000000000000000000142000000000000000000009191000000000000PG01031234567        00000000000000000000000000000000000000000000000000000000000000000000000000000000000000000000986 +                                                                                                                  
21234567        53719863100000003820318092021124436529999******9999   0000000279970000000000000000000000000301000000009333191020210000445968POSC1234567        10517729986N+                                                                                                                                                                                                                                    
11234567        SMPOS537198528180920211910202103399999999999999999000000002000000000000000011848000000011668000000000000000000000180000000000000000000011668000000000000PG01021234567        00000000000000000000000000000000000000000000000000000000000000000000000000000000000000000000986 +                                                                                                                  
21234567        53719852800000002001318092021151133549999******9999   0000000116980000000000000000000000000201000000005849191020210000029138POSC1234567        10908973986N+                                                                                                                                                                                                                                    
21234567        53719852800000002001718092021151738559999******9999   0000000119980000000000000000000000000201000000005999191020210000063772POSC1234567        10908973986N+                                                                                                                                                                                                                                    
11234567        ECPOS536921749180920211910202103399999999999999999000000002000000000000000023993000000023674000000000000000000000319000000000000000000023674000000000000PG01011234567        00000000000000000000000000000000000000000000000000000000000000000000000000000000000000000000986 +                                                                                                                  
21234567        53692174900000001999118092021142113659999******9999   0000000190960000000000000000000000000101000000019096191020210000612999POSC1234567        10908973986N+                                                                                                                                                                                                                                    
21234567        53692174900000001998718092021141020659999******9999   0000000048970000000000000000000000000101000000004897191020210000603277POSC1234567        10908973986N+                                                                                                                                                                                                                                    
11234567        ECPOS536921619180920211910202103399999999999999999000000002000000000000000009797000000009666000000000000000000000131000000000000000000009666000000000000PG01011234567        00000000000000000000000000000000000000000000000000000000000000000000000000000000000000000000986 +                                                                                                                  
21234567        53692161900000003820118092021122257509999******9999   0000000059980000000000000000000000000101000000005998191020210000799444POSC1234567        10517729986N+                                                                                                                                                                                                                                    
21234567        53692161900000003823118092021154319659999******9999   0000000037990000000000000000000000000101000000003799191020210000633458POSC1234567        10517729986N+                                                                                                                                                                                                                                    
11234567        SVPOS536107917180920211910202103399999999999999999000000001000000000000000001999000000001972000000000000000000000027000000000000000000001972000000000000PG01011234567        00000000000000000000000000000000000000000000000000000000000000000000000000000000000000000000986 +                                                                                                                  
21234567        53610791700000003817718092021110533499999******9999   0000000019990000000000000000000000000101000000001999191020210000026749POSC1234567        10517729986N+                                                                                                                                                                                                                                    
11234567        SMPOS536035754180920211910202103399999999999999999000000002000000000000000007198000000007102000000000000000000000096000000000000000000007102000000000000PG01011234567        00000000000000000000000000000000000000000000000000000000000000000000000000000000000000000000986 +                                                                                                                  
21234567        53603575400000003817918092021110846529999******9999   0000000026990000000000000000000000000101000000002699191020210000105280POSC1234567        10517729986N+                                                                                                                                                                                                                                    
21234567        53603575400000003818718092021112801559999******9999   0000000044990000000000000000000000000101000000004499191020210000073341POSC1234567        10517729986N+                                                                                                                                                                                                                                    
11234567        SMPOS450342791190820211910202103399999999999999999000000001000000000000000009499000000009355000000000000000000000144000000000000000000009355000000000000PG02021234567        00000000000000000000000000000000000000000000000000000000000000000000000000000000000000000000986 +                                                                                                                  
21234567        45034279100000003606519082021184001539999******9999   0000000189980000000000000000000000000202000000009499191020210000062504POSC1234567        10517729986N+                                                                                                                                                                                                                                    
11234567        SMPOS363373282200720211910202103399999999999999999000000001000000000000000013012000000012815000000000000000000000197000000000000000000012815000000000000PG03031234567        00000000000000000000000000000000000000000000000000000000000000000000000000000000000000000000986 +                                                                                                                  
21234567        36337328200000001452120072021151940539999******9999   0000000390370000000000000000000000000303000000013012191020210000070878POSC1234567        10908973986N+                                                                                                                                                                                                                                    
9000000185                                                                                                                                                                                                                                                                                                                                                                                                      
